{
  "contractName": "Marketplace",
  "abi": [
    {
      "inputs": [],
      "payable": false,
      "stateMutability": "nonpayable",
      "type": "constructor"
    },
    {
      "anonymous": false,
      "inputs": [
        {
          "indexed": false,
          "internalType": "uint256",
          "name": "id",
          "type": "uint256"
        },
        {
          "indexed": false,
          "internalType": "string",
          "name": "name",
          "type": "string"
        },
        {
          "indexed": false,
          "internalType": "uint256",
          "name": "price",
          "type": "uint256"
        },
        {
          "indexed": false,
          "internalType": "address payable",
          "name": "owner",
          "type": "address"
        },
        {
          "indexed": false,
          "internalType": "bool",
          "name": "purchased",
          "type": "bool"
        }
      ],
      "name": "ProductCreated",
      "type": "event"
    },
    {
      "anonymous": false,
      "inputs": [
        {
          "indexed": false,
          "internalType": "uint256",
          "name": "id",
          "type": "uint256"
        },
        {
          "indexed": false,
          "internalType": "string",
          "name": "name",
          "type": "string"
        },
        {
          "indexed": false,
          "internalType": "uint256",
          "name": "price",
          "type": "uint256"
        },
        {
          "indexed": false,
          "internalType": "address payable",
          "name": "owner",
          "type": "address"
        },
        {
          "indexed": false,
          "internalType": "bool",
          "name": "purchased",
          "type": "bool"
        }
      ],
      "name": "ProductPurchased",
      "type": "event"
    },
    {
      "constant": true,
      "inputs": [],
      "name": "name",
      "outputs": [
        {
          "internalType": "string",
          "name": "",
          "type": "string"
        }
      ],
      "payable": false,
      "stateMutability": "view",
      "type": "function"
    },
    {
      "constant": true,
      "inputs": [],
      "name": "productCount",
      "outputs": [
        {
          "internalType": "uint256",
          "name": "",
          "type": "uint256"
        }
      ],
      "payable": false,
      "stateMutability": "view",
      "type": "function"
    },
    {
      "constant": true,
      "inputs": [
        {
          "internalType": "uint256",
          "name": "",
          "type": "uint256"
        }
      ],
      "name": "products",
      "outputs": [
        {
          "internalType": "uint256",
          "name": "id",
          "type": "uint256"
        },
        {
          "internalType": "string",
          "name": "name",
          "type": "string"
        },
        {
          "internalType": "uint256",
          "name": "price",
          "type": "uint256"
        },
        {
          "internalType": "address payable",
          "name": "owner",
          "type": "address"
        },
        {
          "internalType": "bool",
          "name": "purchased",
          "type": "bool"
        }
      ],
      "payable": false,
      "stateMutability": "view",
      "type": "function"
    },
    {
      "constant": false,
      "inputs": [
        {
          "internalType": "string",
          "name": "_name",
          "type": "string"
        },
        {
          "internalType": "uint256",
          "name": "_price",
          "type": "uint256"
        }
      ],
      "name": "createProduct",
      "outputs": [],
      "payable": false,
      "stateMutability": "nonpayable",
      "type": "function"
    },
    {
      "constant": false,
      "inputs": [
        {
          "internalType": "uint256",
          "name": "_id",
          "type": "uint256"
        }
      ],
      "name": "purchaseProduct",
      "outputs": [],
      "payable": true,
      "stateMutability": "payable",
      "type": "function"
    }
  ],
  "bytecode": "0x6080604052600060015534801561001557600080fd5b506040518060400160405280601b81526020017f4461707020556e6976657273697479204d61726b6574706c616365000000000081525060009080519060200190610061929190610067565b5061010c565b828054600181600116156101000203166002900490600052602060002090601f016020900481019282601f106100a857805160ff19168380011785556100d6565b828001600101855582156100d6579182015b828111156100d55782518255916020019190600101906100ba565b5b5090506100e391906100e7565b5090565b61010991905b808211156101055760008160009055506001016100ed565b5090565b90565b610b6f8061011b6000396000f3fe60806040526004361061004a5760003560e01c806306fdde031461004f57806338e76a03146100df5780637acc0b201461010d578063e0f6ef871461020d578063e9300c6c14610238575b600080fd5b34801561005b57600080fd5b5061006461030a565b6040518080602001828103825283818151815260200191508051906020019080838360005b838110156100a4578082015181840152602081019050610089565b50505050905090810190601f1680156100d15780820380516001836020036101000a031916815260200191505b509250505060405180910390f35b61010b600480360360208110156100f557600080fd5b81019080803590602001909291905050506103a8565b005b34801561011957600080fd5b506101466004803603602081101561013057600080fd5b810190808035906020019092919050505061073b565b60405180868152602001806020018581526020018473ffffffffffffffffffffffffffffffffffffffff1673ffffffffffffffffffffffffffffffffffffffff16815260200183151515158152602001828103825286818151815260200191508051906020019080838360005b838110156101ce5780820151818401526020810190506101b3565b50505050905090810190601f1680156101fb5780820380516001836020036101000a031916815260200191505b50965050505050505060405180910390f35b34801561021957600080fd5b50610222610836565b6040518082815260200191505060405180910390f35b34801561024457600080fd5b506103086004803603604081101561025b57600080fd5b810190808035906020019064010000000081111561027857600080fd5b82018360208201111561028a57600080fd5b803590602001918460018302840111640100000000831117156102ac57600080fd5b91908080601f016020809104026020016040519081016040528093929190818152602001838380828437600081840152601f19601f8201169050808301925050505050505091929192908035906020019092919050505061083c565b005b60008054600181600116156101000203166002900480601f0160208091040260200160405190810160405280929190818152602001828054600181600116156101000203166002900480156103a05780601f10610375576101008083540402835291602001916103a0565b820191906000526020600020905b81548152906001019060200180831161038357829003601f168201915b505050505081565b6103b0610a4e565b600260008381526020019081526020016000206040518060a001604052908160008201548152602001600182018054600181600116156101000203166002900480601f0160208091040260200160405190810160405280929190818152602001828054600181600116156101000203166002900480156104715780601f1061044657610100808354040283529160200191610471565b820191906000526020600020905b81548152906001019060200180831161045457829003601f168201915b50505050508152602001600282015481526020016003820160009054906101000a900473ffffffffffffffffffffffffffffffffffffffff1673ffffffffffffffffffffffffffffffffffffffff1673ffffffffffffffffffffffffffffffffffffffff1681526020016003820160149054906101000a900460ff161515151581525050905060008160600151905033826060019073ffffffffffffffffffffffffffffffffffffffff16908173ffffffffffffffffffffffffffffffffffffffff168152505060018260800190151590811515815250508160026000858152602001908152602001600020600082015181600001556020820151816001019080519060200190610583929190610a95565b506040820151816002015560608201518160030160006101000a81548173ffffffffffffffffffffffffffffffffffffffff021916908373ffffffffffffffffffffffffffffffffffffffff16021790555060808201518160030160146101000a81548160ff0219169083151502179055509050508073ffffffffffffffffffffffffffffffffffffffff166108fc349081150290604051600060405180830381858888f1935050505015801561063e573d6000803e3d6000fd5b507f79558d0d7d4d900e2f15c4cc0a665f1acdbe415e44de900ecdd1e5bf12b56f4e6001548360200151846040015133600060405180868152602001806020018581526020018473ffffffffffffffffffffffffffffffffffffffff1673ffffffffffffffffffffffffffffffffffffffff16815260200183151515158152602001828103825286818151815260200191508051906020019080838360005b838110156106f85780820151818401526020810190506106dd565b50505050905090810190601f1680156107255780820380516001836020036101000a031916815260200191505b50965050505050505060405180910390a1505050565b6002602052806000526040600020600091509050806000015490806001018054600181600116156101000203166002900480601f0160208091040260200160405190810160405280929190818152602001828054600181600116156101000203166002900480156107ed5780601f106107c2576101008083540402835291602001916107ed565b820191906000526020600020905b8154815290600101906020018083116107d057829003601f168201915b5050505050908060020154908060030160009054906101000a900473ffffffffffffffffffffffffffffffffffffffff16908060030160149054906101000a900460ff16905085565b60015481565b600082511161084a57600080fd5b6000811161085757600080fd5b6001600081548092919060010191905055506040518060a0016040528060015481526020018381526020018281526020013373ffffffffffffffffffffffffffffffffffffffff168152602001600015158152506002600060015481526020019081526020016000206000820151816000015560208201518160010190805190602001906108e6929190610a95565b506040820151816002015560608201518160030160006101000a81548173ffffffffffffffffffffffffffffffffffffffff021916908373ffffffffffffffffffffffffffffffffffffffff16021790555060808201518160030160146101000a81548160ff0219169083151502179055509050507fbc59c0c8165864dcceb377dd07d8f431d4303f8e501cb0a0374a10cc68d71836600154838333600060405180868152602001806020018581526020018473ffffffffffffffffffffffffffffffffffffffff1673ffffffffffffffffffffffffffffffffffffffff16815260200183151515158152602001828103825286818151815260200191508051906020019080838360005b83811015610a0c5780820151818401526020810190506109f1565b50505050905090810190601f168015610a395780820380516001836020036101000a031916815260200191505b50965050505050505060405180910390a15050565b6040518060a00160405280600081526020016060815260200160008152602001600073ffffffffffffffffffffffffffffffffffffffff1681526020016000151581525090565b828054600181600116156101000203166002900490600052602060002090601f016020900481019282601f10610ad657805160ff1916838001178555610b04565b82800160010185558215610b04579182015b82811115610b03578251825591602001919060010190610ae8565b5b509050610b119190610b15565b5090565b610b3791905b80821115610b33576000816000905550600101610b1b565b5090565b9056fea265627a7a72315820c1054382b11e4faec4c98005528b2be4971bb9f448847bfdcedc32ec0270933164736f6c63430005100032",
  "source": "pragma solidity >=0.5.0;\n\ncontract Marketplace {\n  string public name;\n  uint public productCount = 0;\n  mapping(uint => Product) public products;\n\n  struct Product {\n    uint id;\n    string name;\n    uint price;\n    address payable owner;\n    bool purchased;\n  }\n\n  constructor () public {\n    name = \"Dapp University Marketplace\";\n  }\n\n  event ProductCreated(\n    uint id,\n    string name,\n    uint price,\n    address payable owner,\n    bool purchased\n    );\n\n  event ProductPurchased(\n    uint id,\n    string name,\n    uint price,\n    address payable owner,\n    bool purchased\n    );\n\n  function createProduct(\n    string memory _name, uint _price) public {\n    require(bytes(_name).length > 0);\n    require(_price > 0 );\n\n    // increment product count\n    productCount++;\n    // create the product\n    products[productCount] = Product(productCount, _name, _price, msg.sender, false);\n    \n    // Triger an event\n    emit ProductCreated(\n      productCount,\n      _name,\n      _price,\n      msg.sender,\n      false\n      );\n  }\n\n  function purchaseProduct(uint _id) public payable{\n    // Fetch the product\n    Product memory _product = products[_id];\n    // Fetch the owner\n    address payable _seller = _product.owner;\n    // Make sure the product is valid\n    // Transfer ownership to buy\n    _product.owner = msg.sender;\n    // Mark as purchased\n    _product.purchased = true;\n    products[_id] = _product;\n\n    // pay the seller by sending them Ether\n    address(_seller).transfer(msg.value);\n\n    // Trigger an event\n    emit ProductPurchased(\n      productCount,\n      _product.name,\n      _product.price,\n      msg.sender,\n      false\n      );\n  }\n}\n\n",
  "sourcePath": "/home/mbuvi/blockchain-apps/marketplace/src/contracts/Marketplace.sol",
  "compiler": {
    "name": "solc",
    "version": "0.5.16+commit.9c3226ce.Emscripten.clang"
  },
  "schemaVersion": "3.3.4",
  "updatedAt": "2021-02-14T20:53:28.957Z",
  "devdoc": {
    "methods": {}
  },
  "userdoc": {
    "methods": {}
  }
}